:020000040000FA
:020000000528D1
:06000A008501860183164A
:1000100003130030860007309F000030850009146C
:1000200089140915081488140815881508168816E7
:100030000817881783123C2280304D220030A3001D
:10004000A400A5000908003C03193B28272809083B
:10005000013C031930292C280908023C03195F29A7
:1000600031280908033C0319972936280908043C5C
:100070000319B5291E2841305422523054224130F0
:1000800054225430542248305422203054224530D7
:1000900054224D305422493054224C30542249309D
:1000A0005422413054224E3054224F3054220510F5
:1000B000C0304D2247305422493054224C30542213
:1000C000203054224D305422413054225230542298
:1000D0005130542255305422453054225A30542243
:1000E0006622732201304D22662266226622212971
:1000F0004330542252305422493054225330542237
:100100005430542248305422493054224130542231
:100110004E3054220510C0304D2248305422453014
:1001200054225230542252305422453054225230FC
:100130005422413054222030542243305422413042
:1001400054225230542252305422493054224C30DE
:1001500054224C3054224F305422662273220130F4
:100160004D226622662266222629413054224C30D6
:100170005422453054224A305422413054224E30C9
:10018000542244305422523054224F30542205100D
:10019000C0304D2242305422413054225230542239
:1001A0005230542245305422493054225230542285
:1001B0004F305422203054225630542241305422A1
:1001C0004C30542244305422453054225A30542268
:1001D0006622732201304D226622662266222B2976
:1001E0004A30542245305422533054225330542242
:1001F000493054224330542241305422203054227A
:100200005A30542245305422503054224530542222
:1002100044305422413054220510C0304D22423027
:10022000542241305422453054225A305422413015
:1002300054226622732201304D22662266226622F3
:100240001E280908003C031D1E2878280908003CC8
:10025000031D1E28B5280908003C031D1E28F02890
:100260000808A600260834296430A6020318A30A49
:10027000031C3B2934292308303E54226430A6074E
:1002800041290A30A6020318A40A031C482941295F
:100290002408303E54220A30A6074E290130A60217
:1002A0000318A50A031C55294E292508303E54225F
:1002B00066226622662201304D2266221E28031025
:1002C00003110808A7002708F039A800A80E28087D
:1002D0000A3C031C6F296C29031D73296F29280808
:1002E000373E542277292808303E542277290310BC
:1002F000031127080F39A9000A3C031C8329802910
:10030000031D8D2983292908373E5422662266223F
:10031000662201304D2266221E282908303E5422D2
:1003200066226622662201304D2266221E280808B7
:10033000B0000830B100B00D031C9F29AA2930304D
:100340005422B10B9B2966226622662201304D227F
:1003500066221E2831305422B10B9B296622662268
:10036000662201304D2266221E2840304D221C306C
:100370005422053054220F3054221F3054221E3094
:100380005422143054220730542200305422662262
:1003900080304D22662200305422662266220130CF
:1003A0004D2266222D2A47304D22153054220A3024
:1003B0005422153054220A305422153054220A3067
:1003C00054221530542200305422662281304D22AE
:1003D0006622013054226622662201304D226622B6
:1003E000322A40304D220A305422043054220A303E
:1003F00054221F305422153054220A305422153012
:10040000542266220030542280304D226622003071
:1004100054226622662201304D226622372A483055
:100420004D221C305422083054221F3054221530E3
:1004300054221F30542202305422073054220030FC
:100440005422662281304D226622013054226622D7
:10045000662201304D2266221E280908043C031D35
:100460001E28D3290908043C031D1E28F129090868
:10047000043C031D1E280F2A30304D2266223030E6
:100480004D22662238304D220C304D2201304D2253
:1004900006304D2202304D22080086005D220510F4
:1004A00085145D228510080086005D2205148514E0
:1004B0005D2285105D225D2208000230A100A4307B
:1004C000A000A00B612AA10B5F2A08000330A00046
:1004D000FF30A100FF30A200A20B6C2AA10B6A2AF8
:1004E000A00B682A0800FF30B3007922B30B752AED
:1004F0000800FF30B4007F22B40B7B2A08001E30B6
:08050000B500B50B812A0800CB
:00000001FF
