:020000040000FA
:020000000528D1
:06000A00850183160313BB
:1000100006309F003F308500860187018312003043
:100020000506031934280130050603193828023063
:10003000050603193E28033005060319432804303A
:100040000506031948280530050603194E28063011
:100050000506031954280730050603195A280830E5
:10006000050603195F280F288601870165200F28E0
:10007000043087000830860065200F280430870090
:10008000860065200F2802308700860065200F2833
:10009000023087000130860065200F280630870077
:1000A0000A30860065200F2806308700053086005C
:1000B00065200F2806308700860065200F2806304F
:1000C00087000930860065200F282030A1005030BD
:1000D000A2006030A300A30B6B28A20B6928A10B20
:0400E0006728080085
:00000001FF
