:020000040000FA
:020000000528D1
:06000A00850183160313BB
:1000100006309F003F3085008601831200300506C0
:10002000031923280130050603192620023005068E
:10003000031930200330050603193A280430050659
:10004000031943280E28860166200E280830A500D3
:100050004030A6004C20A60B2A28A50B2828080013
:100060000830A5004030A6005920A60B3428A50B67
:10007000322808000530A4002620A403030124062A
:10008000031D3C280E280A30A4003020A4030301DD
:100090002406031D45280E28C030860066206030E7
:1000A000860066203030860066209030860066200C
:1000B0000800C03086006620903086006620303010
:1000C0008600662060308600662008000A30A100A5
:1000D0000A30A2004B30A300A30B6C28A20B6A28A5
:0600E000A10B68280800D6
:00000001FF
