:020000040000FA
:020000000528D1
:06000A00850183160313BB
:1000100006309F003F3085008701831201300506BE
:1000200003191B2802300506031921280430050690
:10003000031927280E28013087002D20870154201E
:100040000E28013087003A20870161200E280130F8
:100050008700472087016E200E280A30A10010304B
:10006000A2000530A300A30B3328A20B3128A10B5B
:100070002F2808000A30A1001030A2000E30A30083
:10008000A30B4028A20B3E28A10B3C2808000A30F5
:10009000A1001030A2001830A300A30B4D28A20B22
:1000A0004B28A10B492808000A30A1001030A200FB
:1000B000B230A300A30B5A28A20B5828A10B562834
:1000C00008000A30A1001030A200A930A300A30B41
:1000D0006728A20B6528A10B632808000A30A1003D
:1000E0001030A2009F30A300A30B7428A20B72282B
:0600F000A10B70280800BE
:00000001FF
