:1000000000308A00FE290000FF00030E8301A100DA
:100010000A08A0008A010408A2007708A300780853
:10002000A4007908A5007A08A6007B08A70083131E
:1000300083128B1E1D280B193028220884002308E8
:10004000F7002408F8002508F9002608FA00270818
:10005000FB0020088A00210E8300FF0E7F0E09009E
:100060008A110A1296290A108A100A118207283466
:100070000C34013406340A108A100A118207443401
:100080006934723465346334633469346F346E3484
:1000900061346C346534733400340A108A100A11E8
:1000A0008207A13443347534693464346134643470
:1000B0006F34213400340A108A100A1182074D343B
:1000C00061346E3469346F346234723461340034B4
:1000D0000A108A100A11820745346E3420345234D3
:1000E00065347634653472347334613400340A1004
:1000F0008A100A1182074134763461346E347A34BE
:1001000061346E3464346F3400340A108A100A117A
:1001100082070A34563441344C344F34523420343C
:100120004E344F3420345634C1344C344934443482
:100130004F340A3400344D3084008313000803190F
:10014000AE280630F800F701F70BA428F80BA32817
:100150007B30F700F70BAA28800BA12800349413FA
:100160008C115D0893000230941BBD288C1DB628AD
:1001700000308316111B01308312F8000034580838
:10018000003A0319C728013A0319EA280F29570E24
:10019000F700F030F70577082E04DA00DD00AF2015
:1001A0000000570EF700F030F705770804382E04EA
:1001B000DB00DD00AF200330F700F70BDD28570E22
:1001C000F700F030F7057708FB392E04DB00DD007F
:1001D000AF200F29570EF700F030F70577080138E8
:1001E0002E04DB00DD00AF200000570EF700F030DA
:1001F000F7057708013804382E04DC00DD00AF2055
:100200000330F700F70B0229570EF700F030F7051F
:10021000770801382E04DB00DD00AF200F29003401
:10022000831611141118122983122A08DD00AF2039
:10023000540ED6000F30D6055608D7005508D80002
:10024000BF2054080F39D600D7005508D800BF206A
:100250008316111511192A29831200344E082B0216
:10026000031835292B08CF0037294E08CF004F0837
:10027000013A03194529033A03194729013A031999
:100280004A29073A03194D295029D10152294030F2
:10029000D10052291430D10052295430D1005229B2
:1002A000D10152294D082C02031859292C08D000DD
:1002B0005B294D08D000013050025107D20052088E
:1002C0008038D300D400D501102100340130D4008F
:1002D000D50110210230CD009B200130AD0000344B
:1002E0004C080C3A03197B29063A03197D29023A76
:1002F00003198A298F2966219529AD0A2D082B0219
:10030000031884290130AD000130CD002D08CE0046
:100310002E2195291030D400D501102195294C08A3
:10032000D4000130D500102195290034B60AB70A4F
:10033000350BA4291F151F199B291E08B000300872
:1003400095000F30CD009B2036082D3C031DC7299A
:10035000340BC7290130CD00CE002E21CB014B0834
:100360003B20CB0AF700CC0070210D304B02031D5F
:10037000AF29B101310FBD29C52931089B000A30D1
:10038000CD009B200530B107BA29B6016621370898
:100390000A3C031DFA29330BFA290130CD00CE00A7
:1003A0002E21CB014B084D20CB0AF700CC00702149
:1003B00009304B02031DD2290130CD000230CE009E
:1003C0002E21CB014B085B20CB0AF700CC0070211B
:1003D00008304B02031DE229B101310FF029F82941
:1003E00031089B000630CD009B200530B107ED2978
:1003F000B70166210B118A110A121D28840183138B
:100400001F308305813083169900A6309800903004
:1004100083129800A91529088316870083122916CC
:100420002908831687003130930028308312940006
:100430008316941714131F149F141F159F11FF3058
:100440008312A9000130AD000830AE00AF012911C0
:10045000290883168700831207110C309700A91012
:10046000290883168700831287100C309D00003006
:10047000F80006389200FF30831692008312810143
:100480000730F700F71D4D2A0730810181308400C5
:1004900083130008C0390F38800064008130840065
:1004A0000008C039770480008B16C0308B041F17FA
:1004B0009F1783169F1383121F1483161F109F14F8
:1004C0001F159F150030F80083121F08C7397804E4
:1004D0009F00A8018B1BA8178B136430CD009B20B5
:1004E000A81B8B174E30B8001030B9000230BA008C
:1004F0003808AA003A08AB003908AC000B138B137C
:100500008B1B7F2AA8018B1BA8178B133230CD00C1
:100510009B20A81B8B178316111411188D2A831288
:10052000A8018B1BA8178B132A08DD00AF20A81B7E
:100530008B17A8018B1BA8178B13D701D801BF20DD
:10054000A81B8B17A8018B1BA8178B130F30CD008E
:100550009B20A81B8B170130BB003B08033C031CEE
:10056000C62AA8018B1BA8178B130330D700D8010C
:10057000BF20A81B8B17A8018B1BA8178B13053056
:10058000CD009B20A81B8B17BB0AAD2AA8018B1B93
:10059000A8178B130230D700D801BF20A81B8B17D8
:1005A000A8018B1BA8178B130530CD009B20A81B1F
:1005B0008B17831611151119DB2A8312BB013B0817
:1005C000033C031CFB2A3B083320BC00A8018B1B07
:1005D000A8178B133C08D400D5011021A81B8B173A
:1005E000A8018B1BA8178B130530CD009B20A81BDF
:1005F0008B17BB0ADF2AA8018B1BA8178B13662158
:10060000A81B8B17C0308B04B301B401B501B60130
:10061000B701B1018C1E0A2B1A08B20032084C3AFD
:100620000319282B1E3A03192B2B3E3A03194D2B85
:100630001E3A0319502B423A0319712B013A031940
:100640007C2B033A0319922B013A0319982B9E2B0A
:100650000130B500AB2B8316850102308312850073
:10066000A8018B1BA8178B130130CD00CE002E21C3
:10067000A81B8B17B80138086820B80AF700A80132
:100680008B1BA8178B137708CC007021A81B8B1726
:100690000A303802031D3B2BAB2BB5019501AB2B68
:1006A0008316850183128501A8018B1BA8178B1364
:1006B0000130CD00CE002E21A81B8B17B8013808C1
:1006C0007720B80AF700A8018B1BA8178B137708AF
:1006D000CC007021A81B8B1709303802031D5F2B3B
:1006E000AB2BB301B401A8018B1BA8178B13662198
:1006F000A81B8B179B01AB2BB301B401B101310FC8
:10070000822B902B31089B00A8018B1BA8178B1301
:100710000A30CD009B20A81B8B170530B1077F2B1B
:100720009B01AB2BB3010130B400B601B701AB2B79
:100730000130B300B401B601B701AB2BB8013808E2
:100740008520B80AF70077080C1EA42B99001130F9
:0A0750003802031D9F2B0A2B6300E3
:023E000000348C
:02400E00723FFF
:00000001FF
;PIC16F877
