:020000040000FA
:020000000528D1
:080008001B2883160313860177
:100010008801073081000C1483120B118B168B178B
:10002000313090000B1786018801A001A1018F01DA
:100030008E010C101A280B1D2C28A00A1330200248
:10004000031D2A28A00199302202031D3D28A20188
:10005000220886000B113C280C1C3C28A10A053004
:100060002102031D3B28A10199302302031D4E28C4
:10007000A301230886000C10090022080F39093C4F
:10008000031D43284728A20A220886002A28103088
:10009000A2070930A202220886002A2823080F3965
:1000A000093C031D54285828A30A230888003B282C
:0E00B0001030A3070930A302230888003B2864
:00000001FF
