:020000040000FA
:020000000528D1
:06000A00831603138601BA
:10001000181581309900181298168312981718161F
:100020008C1E10281A08A00044302002031925282D
:100030006430200203192528493020020319312891
:10004000693020020319312810288030A4000830BC
:10005000A500240886003D200310A40CA50B292828
:1000600010280130A4000830A500240886003D2097
:100070000310A40DA50B352810282030A100503006
:10008000A2006030A300A30B4328A20B4128A10BC0
:040090003F280800FD
:00000001FF
