:020000040000FA
:020000000528D1
:08000800492883160313860149
:10001000181581309900181298160C14831298172D
:100020001816313090000B178B178F018E01A1012C
:10003000A2010B108C1E1A281A08A00053302002AF
:100040000319332841302002031936285430200286
:1000500003193B284430200203194028493020026C
:10006000031945281A28870186011A2806308700B7
:100070000A3086001A2806308700053086001A28C4
:1000800006308700093086001A280630870086006F
:100090001A280C1C5828592003302202031D572807
:1000A0005A302102031D57288701860156280C105B
:1000B0000900FF302102031D6028A20AA1010800E7
:1000C000A10A08002030A3005030A4006030A50031
:0E00D000A50B6828A40B6628A30B6428080063
:00000001FF
