:020000040000FA
:020000000528D1
:06000A00831603139F01A1
:1000100009140914181581309900181298168312C2
:10002000E9309F00981718168C1E1428A701A80104
:10003000A9016E20A200A21F21280230A7070530C7
:10004000A807221F29280130A7070230A80705307A
:10005000A907A21E31280630A80774200330A9077B
:100060007B20221E39280330A80774200230A907FC
:100070007B20A21D41280130A80774200630A90763
:100080007B20221D46280830A9077B20A21C4B2874
:100090000430A9077B20221C50280230A9077B20AE
:1000A0003030A707A807A907270867202808672076
:1000B0002E3067202908672020306720A73067206E
:1000C000433067200D3067200A30672014289900DC
:1000D0008316981C69288320831208001F1583202B
:1000E0001F1970281E0808000A302802031C080087
:1000F000A70AA80008000A302902031C0800A80A61
:10010000A900742008002030A4005030A500603001
:10011000A600A60B8928A50B8728A40B8528080014
:00000001FF
