:020000040000FA
:020000000528D1
:06000A008501860183164A
:1000100003138601850105140E309F00091489140D
:100020000915FF3088008312C1309F009F21803066
:10003000B0210030A300A400A50009080319352849
:1000400021280908013A0319632826280908023AD9
:10005000031991282B280908033A0319AF283028DF
:100060000908043A0319FC281928C021A6003828D9
:100070006430A6020318A30A031C3F28382823086B
:10008000303EB7216430A60745280A30A60203187F
:10009000A40A031C4C2845282408303EB7210A3006
:1000A000A60752280130A6020318A50A031C5928E6
:1000B00052282508303EB721E321E321E321013016
:1000C000B021E3211928C021A700F039A800A80E0B
:1000D0000A302802031C71286D282808373EB721F2
:1000E00075282808303EB721752827080F39A90040
:1000F0000A302902031C87287D282908373EB721AA
:10010000E321E321E3210130B021E321192829086B
:10011000303EB721E321E321E3210130B021E32187
:100120001928C021AA000830AB00AA0D031C992889
:10013000A4283030B721AB0B9528E321E321E3213C
:100140000130B021E32119283130B721AB0B9528BC
:10015000E321E321E3210130B021E3211928C0216B
:10016000AC00AC1FB7280230A3070530A4072C1F32
:10017000BF280130A3070230A4070530A507AC1E35
:10018000C7280630A407C6210330A507CD212C1EA1
:10019000CF280330A407C6210230A507CD21AC1D0E
:1001A000D7280130A407C6210630A507CD212C1D74
:1001B000DC280830A507CD21AC1CE1280430A507B8
:1001C000CD212C1CE6280230A507CD212308303E86
:1001D000B7212E30B7212408303EB7212508303E04
:1001E000B7212030B7215630B721E321E321E321A5
:1001F0000130B021E3211928C021AD004030B021E9
:10020000FA302D02031C05298329D0302D02031C4E
:100210000A2972299C302D02031C0F29612968309C
:100220002D02031C1429502934302D02031C1929D6
:100230003F2900302D02031D2F291E290E30B72122
:100240000A30B7210A30B7210A30B7211130B7215F
:100250001130B7211130B7211F30B72193290E304B
:10026000B7210A30B7210A30B7210A30B72111303F
:10027000B7211130B7211F30B7211F3093290E301D
:10028000B7210A30B7210A30B7210A30B72111301F
:10029000B7211F30B7211F30B7211F30B721932955
:1002A0000E30B7210A30B7210A30B7210A30B72102
:1002B0001F30B7211F30B7211F30B7211F30B721A2
:1002C00093290E30B7210A30B7210A30B7210E30FA
:1002D000B7211F30B7211F30B7211F30B7211F3082
:1002E000B72193290E30B7210A30B7210E30B7213C
:1002F0000E30B7211F30B7211F30B7211F30B72173
:100300001F30B72193290E30B7210E30B7210E30A0
:10031000B7210E30B7211F30B7211F30B7211F3052
:10032000B7211F30B721E3218030B021E321003015
:10033000B721E321E3210130B021E3211928303036
:10034000B021E3213030B021E3213830B0210C302E
:10035000B0210130B0210630B0210230B0210800B8
:100360008600DA2185110516DA21051208008600BB
:10037000DA2185150516DA210512DA21DA210800BD
:100380001F15D5211F19C2291E0808000A30240292
:10039000031C0800A30AA40008000A302502031C5D
:1003A0000800A40AA500C62108003030A000A00B58
:1003B000D72908000230A100A430A000A00BDE293C
:1003C000A10BDC2908000330A000FF30A100FF30A2
:1003D000A200A20BE929A10BE729A00BE52908003F
:00000001FF
