:020000040000FA
:020000000528D1
:06000A00850183160313BB
:1000100006309F003F308500860183120310A40143
:100020008030A500A7000130A6000730A8000030EE
:10003000050603193028013005060319322802305D
:100040000506031935280330050603193A2804303C
:10005000050603193F2805300506031956281728F9
:1000600086011728FF3086001728A50C2508860072
:100070005D201728A60D260886005D201728241C61
:1000800042284A28A70CA80303012806031D52286A
:1000900024145228A70DA80A07302806031D522849
:1000A00024105228270886005D20172803018600A7
:1000B0005D20FF3086005D2017282030A1005030E1
:1000C000A2006030A300A30B6328A20B6128A10B40
:0400D0005F2808009D
:00000001FF
