:020000040000FA
:020000000528D1
:06000A00850183160313BB
:100010008601831203100A30A500030186003E20EA
:10002000FF3086003E20A50303012506031D0D2891
:100030000730A500803086003E20860C3E20A503B8
:1000400003012506031D1D280730A5000130860089
:100050003E20860D3E20A50303012506031D292809
:100060000A30A500AA3086003E20553086003E208A
:10007000A50303012506031D32280B282030A1000B
:100080005030A2006030A300A30B4428A20B4228EA
:06009000A10B402808004E
:00000001FF
