:1000000000308A000F2D0000FF00030E8301A100C5
:100010000A08A0008A010408A2007708A300780853
:10002000A4007908A5007A08A6007B08A70083131E
:1000300083128B1E1D280B193028220884002308E8
:10004000F7002408F8002508F9002608FA00270818
:10005000FB0020088A00210E8300FF0E7F0E09009E
:100060008A110A12802C0A108A100A118207283479
:100070000C34013406340A108A100A1182074D34F8
:100080006534743472346F3473343A342034253424
:10009000663420346D3400340A108A100A11820745
:1000A00045344E3420345034413452344F340034CB
:1000B0000A108A100A1182074134563441344E34F2
:1000C0005A3441344E3444344F3400340A108A10C8
:1000D0000A11820745344E342034523445345634A4
:1000E000453452345334413400340A108A100A1112
:1000F000820744344534523445344334483441341F
:1001000000340A108A100A11820749345A345134D3
:1001100055344934453452344434413400340A109F
:100120008A100A1182074D3441344E3449344F3419
:10013000423452344134003494138C1171089300CA
:100140000230941BAA288C1DA32800308316111B93
:1001500001308312F80000346C08003A0319B42807
:10016000013A0319D728FC286B0EF700F030F70589
:1001700077082E04EE00F1009C2000006B0EF700C3
:10018000F030F705770804382E04EF00F1009C20CA
:100190000330F700F70BCA286B0EF700F030F705B5
:1001A0007708FB392E04EF00F1009C20FC286B0E31
:1001B000F700F030F705770801382E04EF00F10062
:1001C0009C2000006B0EF700F030F705770801382F
:1001D00004382E04F000F1009C200330F700F70BE8
:1001E000EF286B0EF700F030F705770801382E0482
:1001F000EF00F1009C20FC28003483161114111824
:10020000FF2883122A08F1009C20680EEA000F30B4
:10021000EA056A08EB006908EC00AC2068080F39B1
:10022000EA00EB006908EC00AC20831611151119E7
:1002300017298312003462082B02031822292B0885
:10024000E30024296208E3006308013A0319322914
:10025000033A03193429013A03193729073A0319D4
:100260003A293D29E5013F294030E5003F29143076
:10027000E5003F295430E5003F29E5013F296108A9
:100280002C02031846292C08E40048296108E400E0
:10029000013064026507E60066088038E700E80080
:1002A000E901FD2000346130840083130008031944
:1002B00066290630F800F701F70B5C29F80B5B297B
:1002C0007B30F700F70B6229800B5929003401308D
:1002D000E800E901FD200230E10053210130AD00CA
:1002E000003460080C3A03197C29063A03197E2968
:1002F000023A03198B29902967219629AD0A2D0806
:100300002B02031885290130AD000130E1002D08D2
:10031000E2001B2196291030E800E901FD20962912
:100320006008E8000130E900FD20962900346008EB
:100330000319072AE80064080319072AE8070318C5
:10034000A8297F30E802031C072A0319072AAC29D1
:100350008130E8070318072A6808F700F801F90157
:10036000FA016108EC00EC176208EB006308EA0090
:100370001830E800E9016A1CD5296708FA07031C50
:10038000C729F90A031DC729F80A0319E9176608DE
:10039000F907031CCE29F80A0319E9176508E200DA
:1003A000E2176208F8070318E917E90DF80CF90CD1
:1003B000FA0CEC0CEB0CEA0C0310E80BBA29013038
:1003C000F7070318072AF81BEC29EC0DFA0DF90DB5
:1003D000F80DF7030319072AEC1FFD29FA0A031D7C
:1003E000FD29F90A031DFD29F80A031DFD29F80C52
:1003F000F90CFA0CF70A0319072A6108E9006508E5
:10040000E906E91F052AF8170B2AF8130B2AF7014A
:10041000F801F901FA018A110A12862A6008B63C2D
:10042000E000FA016108E400E1170310E10CE20CBE
:10043000E30CFA0CF90CF80CF70CE00B152AE41F8E
:100440002C2AF709F809F909FA09F70A0319F80A31
:100450000319F90A0319FA0A8A110A12992AF701EB
:10046000F801F901FA01E801E901EA01EB01670885
:1004700066046504640403196D2A2030EC0003103F
:10048000E00DE10DE20DE30DE80DE90DEA0DEB0DD8
:1004900067086B02031D562A66086A02031D562A66
:1004A00065086902031D562A64086802031C672A4E
:1004B0006408E8026508031C650FE9026608031C6E
:1004C000660FEA026708031C670FEB020314F70DBF
:1004D000F80DF90DFA0DEC0B3F2A683084008313F8
:1004E00000340408D8005708DA000319902A560887
:1004F000E3005508E2005408E1005308E000E7017A
:10050000E6012030E5008230E40097297A08D60021
:100510007908D5007808D4007708D300DA0B772A59
:100520005608E3005508E2005408E1005308E000D3
:100530000E2A7A08D6007908D5007808D400770802
:10054000D300D61FB02AD803D816D309D409D509A9
:10055000D609D30A0319D40A0319D50A0319D60AEE
:100560003B30DF009A30DE00CA30DD00DC010A30AB
:10057000DA0057080319D80A5608E3005508E200C4
:100580005408E1005308E0005F08E7005E08E60059
:100590005D08E5005C08E4002F220008D300840A0F
:1005A0000008D400840A0008D500840A0008D60098
:1005B000FD308407F708031DF02A570A5A02031971
:1005C000F02A58080319F22A0F395A020319EA2AA5
:1005D0000318222BD81B222B581BF22A20301E2B4B
:1005E0002030D805D81E002BD8125708031DD80379
:1005F0007708D8002D30E00071215808F700D801A5
:1006000057085A02031D0E2B7708D8002E30E00041
:1006100071215808F7002030D80500303030D81E3E
:100620001E2BD8125708031DD8037708D8002D3089
:10063000E00071215808F700D8013030F70777083B
:10064000E00071215F08E3005E08E2005D08E10060
:100650005C08E000E701E601E5010A30E4002F2232
:100660007A08DF007908DE007808DD007708DC0012
:10067000DA0BBC2A8A110A12A22C80308318D70602
:10068000DC01DD015308DB005708DB0652080319C3
:100690002D2CDA00F70056080319362CDA0203195C
:1006A000D22B031C902B5708E000E0175808DF00FE
:1006B0005908DE00DD010310E00CDF0CDE0CDD0C60
:1006C000DA0B5A2BDB1F672B5C144A2C5C105A1078
:1006D0005C165530840083135F2C5C12DB1B7A2B75
:1006E0005A1C852BE00CDF0CDE0CDD0CF70A03191D
:1006F000452C852BE01B882B0310DD0DDE0DDF0D57
:10070000E00DF7030319452C7A2B5C17F22B5C13D1
:100710005308DB00DB1F8E2BE0173E2CE0133E2C32
:100720005608DA00F7005208DA025308E000E01732
:100730005408DF005508DE00DD010310E00CDF0C7B
:10074000DE0CDD0CDA0B9C2BDB1FA92BDC144A2CF6
:10075000DC105A10DC165930840083135F2CDC1235
:10076000DB1BBC2B5A1CC72BE00CDF0CDE0CDD0C9A
:10077000F70A0319452CC72BE01BCA2B0310DD0D0C
:10078000DE0DDF0DE00DF7030319452CBC2BDC1744
:10079000F22BDC135708DB00DB1FD02BE0173E2CBD
:1007A000E0133E2C5708E000E0175808DF00590816
:1007B000DE00DB1FDF2BE0135C154A2C5C11DD0132
:1007C0005A105530840083135F2CDB1B082C530810
:1007D000DB005A1CF22BE00CDF0CDE0CDD0CF70A00
:1007E0000319452CDD1F032CDE0A031D032CDF0A31
:1007F000031D032CE00A031D032CE00CDF0CDE0CB0
:10080000F70A0319452C5C1B872BDC1BC92B272CF3
:100810008030E006E01F102C4A2C5708DB001D2C0E
:100820005308DB00E008031D1D2CDF08031D1D2CF1
:10083000DE08031D1D2CF7013E2CE01B272C0310A6
:10084000DD0DDE0DDF0DE00DF70B1D2C452CDB1F44
:100850002B2CE0173E2CE0133E2C5608F7005708CF
:10086000E0005808DF005908DE003E2C5208F7006F
:100870005308E0005408DF005508DE006008F80067
:100880005F08F9005E08FA007D2CF701F801F90114
:10089000FA017D2CDD01DE09DF09E009DD09DD0A51
:1008A000031D582CDE0A031D582CDF0A0319E00A29
:1008B0005C18662BDC18A82B5C19DE2B0D2C0008AD
:1008C000DE07031C692CDF0A031D692CE00A0319EB
:1008D0005A1484030008DF07031C712CE00A031973
:1008E0005A1484030008801F803AE00703185A1442
:1008F0005C1A6D2BDC1AAF2BE52B8A110A12BE2C69
:10090000B80AB90A310BA82CB00A0130E100023054
:10091000E2001B21D20152083B20D20AF700E0007E
:10092000712108305202031D8B2C893084003D0850
:10093000D6003C08D5003B08D4003A08D30002306A
:10094000D700712A2030E00071216D30E000712164
:1009500030084C3C031DC72C83103D08D5003C08D3
:10096000D4003B08D3003A08D2001430D900AE308E
:10097000D8000730D7007C30D6003D2B7A08BD0068
:100980007908BC007808BB007708BA00B001360BC4
:10099000DF2CB508031DDF2CB408031DDF2C1F1549
:1009A0001F19D02C1E08B3003308B43CD2009500A8
:1009B0003308B43CD2009B000A30E10053213808D0
:1009C0002D3C031DE62C350BE62CE82C370BF52CC3
:1009D000B201320FEC2CF42C320895000A30E10001
:1009E00053210530B207E92CB80139082D3C031D0D
:1009F000FC2C340BFC2CFE2C370B0B2DB201320FD0
:100A0000022D0A2D32089B000A30E10053210530E7
:100A1000B207FF2CB9010B118A110A121D2884019B
:100A200083131F308305813083169900A630980008
:100A3000903083129800A915290883168700831225
:100A40002916290883168700313093002830831235
:100A500094008316941714131F149F141F159F11CD
:100A6000FF308312A9000130AD000830AE00AF01A5
:100A70002911290883168700831207110C3097006B
:100A8000A910290883168700831287100C309D0057
:100A90000030F80006389200FF308316920083126F
:100AA00081010730F700F71D5E2D0730810181308D
:100AB000840083130008C0390F388000640081303F
:100AC00084000008C039770480008B16C0308B0486
:100AD0001F179F1783169F1383121F1483161F104F
:100AE0009F101F119F112830F80083121F08C7396B
:100AF00078049F00A8018B1BA8178B136430E100BA
:100B00005321A81B8B174E30BF001030C00002309D
:100B1000C1003F08AA004108AB004008AC000B131D
:100B20008B138B1B902DA8018B1BA8178B133230B6
:100B3000E1005321A81B8B178316111411189E2D49
:100B40008312A8018B1BA8178B132A08F1009C2085
:100B5000A81B8B17A8018B1BA8178B13EB01EC01AB
:100B6000AC20A81B8B17A8018B1BA8178B130F3069
:100B7000E1005321A81B8B170130C2004208033C3F
:100B8000031CD72DA8018B1BA8178B130330EB0078
:100B9000EC01AC20A81B8B17A8018B1BA8178B138B
:100BA0000530E1005321A81B8B17C20ABE2DA801F6
:100BB0008B1BA8178B130230EB00EC01AC20A81B99
:100BC0008B17A8018B1BA8178B130530E10053214D
:100BD000A81B8B17831611151119EC2D8312C20156
:100BE0004208033C031C0C2E42083320C300A8011A
:100BF0008B1BA8178B134308E800E901FD20A81BF5
:100C00008B17A8018B1BA8178B130530E10053210C
:100C1000A81B8B17C20AF02DA8018B1BA8178B13DA
:100C20006721A81B8B17C0308B04B001B101BD0137
:100C3000BC01BB01BA01B401B501B601B801B901EB
:100C4000B2018C1E212E1A08BE003E08533A031929
:100C5000422E123A0319732E153A0319A62E103A92
:100C60000319DA2E0D3A03190F2F043A0319452FF1
:100C7000203A03196B2F213A0319762F203A0319D2
:100C80007A2F7E2F95019B01A8018B1BA8178B1330
:100C90006721A81B8B17A8018B1BA8178B1301308A
:100CA000E100E2001B21A81B8B17BF013F084C206D
:100CB000BF0AF700A8018B1BA8178B137708E00069
:100CC0007121A81B8B1707303F02031D562EB1015F
:100CD000831686018312860183168501831285019E
:100CE000B401B5017E2F95019B01A8018B1BA817AC
:100CF0008B136721A81B8B17A8018B1BA8178B13BD
:100D00000130E100E2001B21A81B8B17BF013F0847
:100D10005820BF0AF700A8018B1BA8178B13770870
:100D2000E0007121A81B8B1709303F02031D872E9D
:100D30000130B100831686010A30831286008316C3
:100D4000850183128501B401B5017E2F95019B01B8
:100D5000A8018B1BA8178B136721A81B8B17A80151
:100D60008B1BA8178B130130E100E2001B21A81B8D
:100D70008B17BF013F086620BF0AF700A8018B1B35
:100D8000A8178B137708E0007121A81B8B170A3076
:100D90003F02031DBA2E0130B100831686010530D3
:100DA0008312860083168501063083128500B40104
:100DB000B5017E2F9501A8018B1BA8178B13672106
:100DC000A81B8B17A8018B1BA8178B130130E10000
:100DD000E2001B21A81B8B17BF013F087520BF0A2B
:100DE000F700A8018B1BA8178B137708E00071216F
:100DF000A81B8B1707303F02031DED2EB101831690
:100E00008601093083128600831685010230831221
:100E100085000130B400B501B901B8017E2F9B01F6
:100E2000B701A8018B1BA8178B136721A81B8B1771
:100E3000A8018B1BA8178B130130E100E2001B21D6
:100E4000A81B8B17BF013F088120BF0AF700A8012C
:100E50008B1BA8178B137708E0007121A81B8B1739
:100E600009303F02031D232FB1018316860106308E
:100E70008312860083168501043083128500B40135
:100E80000130B500B901B8017E2F0130B700A801CB
:100E90008B1BA8178B136721A81B8B17A8018B1B13
:100EA000A8178B130130E100E2001B21A81B8B1750
:100EB000BF013F088F20BF0AF700A8018B1BA817AE
:100EC0008B137708E0007121A81B8B1708303F02B5
:100ED000031D592F7E2FB701A8018B1BA8178B1359
:100EE0006721A81B8B1795019B017E2FB70101304D
:100EF000B6007E2FB60195019B017E2F212E630047
:023E000000348C
:02400E00723FFF
:00000001FF
;PIC16F877
