:1000000005308A00022D0000FF00030E8301A100CD
:100010000A08A0008A010408A2007708A300780853
:10002000A4007908A5007A08A600831383128B1E0A
:100030001B280B192C28220884002308F700240809
:10004000F8002508F9002608FA0020088A00210E89
:100050008300FF0E7F0E09008A110A12282B0A1056
:100060008A100A11820728340C34013406349413A0
:100070008C115D0893000230941B45288C1D3E288E
:1000800000308316111B01308312F80008005B0852
:10009000003A03194F28013A031974289A285A0E76
:1000A000F700F030F70577082D04DC00DD0037207D
:1000B00000005A0EF700F030F705770804382D04D9
:1000C000DC00DD0037200230F700F70B65286828D8
:1000D00000005A0EF700F030F7057708FB392D04C1
:1000E000DC00DD0037209A285A0EF700F030F705C3
:1000F000770801382D04DC00DD00372000005A0E9F
:10010000F700F030F7057708013804382D04DC00DB
:10011000DD0037200230F700F70B8C288F28000015
:100120005A0EF700F030F705770801382D04DC008F
:10013000DD003720080051082A020318A2282A08E7
:10014000D200A4285108D2005208013A0319B2285B
:10015000033A0319B428013A0319B728073A0319D7
:10016000BA28BD28D401BE284030D400BE2814309F
:10017000D400BE285430D400BE28D40150082B022D
:100180000318C5282B08D300C7285008D300013016
:1001900053025407D50055088038D6005608D700BA
:1001A000D801831611141118D32883122908DD00F1
:1001B0003720570ED9000F30D9055908DA005808F2
:1001C000DB00472057080F39D900DA005808DB0058
:1001D0004720831611151119EB288312080050309F
:1001E000840083130008031902290630F800F70180
:1001F000F70BF828F80BF7287B30F700F70BFE28F1
:10020000800BF52808004F080C3A03190E29063A0E
:1002100003193429023A0319412962290130D70010
:10022000D801831611141118132983122908DD002F
:100230003720570ED9000F30D9055908DA00580871
:10024000DB00472057080F39D900DA005808DB00D7
:1002500047208316111511192B2902308312D00063
:10026000EF200130AC008329AC0A2C082A020318C5
:100270003B290130AC000130D0002C08D1009B207C
:1002800083291030D700D80183161114111846297C
:1002900083122908DD003720570ED9000F30D90509
:1002A0005908DA005808DB00472057080F39D900F1
:1002B000DA005808DB0047208316111511195E2952
:1002C000831283294F08D7000130D80083161114F8
:1002D0001118682983122908DD003720570ED9002C
:1002E0000F30D9055908DA005808DB0047205708B5
:1002F0000F39D900DA005808DB00472083161115A2
:100300001119802983120800831889295730840025
:100310008313F701F801F901FA01D701D801D901D6
:10032000DA0156085504540453040319C729203030
:10033000DB000310CF0DD00DD10DD20DD70DD80D90
:10034000D90DDA0D56085A02031DB0295508590275
:10035000031DB02954085802031DB0295308570241
:10036000031CC1295308D7025408031C540FD80298
:100370005508031C550FD9025608031C560FDA0204
:100380000314F70DF80DF90DFA0DDB0B9929570839
:100390008000840A58088000840A59088000840A72
:1003A0005A08800008000408C7004608C90003195D
:1003B000652A4508D2004408D1004308D00042080D
:1003C000CF00D601D5012030D4008230D3004F08B1
:1003D0000319572AD70053080319572AD7070318B8
:1003E000F8297F30D702031C572A0319572AFC2902
:1003F0008130D7070318572A5708F700F801F90189
:10040000FA015008DB00DB175108DA005208D90066
:100410001830D700D801591C252A5608FA07031CA2
:10042000172AF90A031D172AF80A0319D8175508BD
:10043000F907031C1E2AF80A0319D8175408D1001B
:10044000D1175108F8070318D817D80DF80CF90C74
:10045000FA0CDB0CDA0CD90C0310D70B0A2A01308A
:10046000F7070318572AF81B3C2ADB0DFA0DF90D84
:10047000F80DF7030319572ADB1F4D2AFA0A031D4B
:100480004D2AF90A031D4D2AF80A031D4D2AF80CBE
:10049000F90CFA0CF70A0319572A5008D800540827
:1004A000D806D81F552AF8175B2AF8135B2AF701DC
:1004B000F801F901FA017A08C5007908C400780842
:1004C000C3007708C200C90BD9294508D2004408E7
:1004D000D1004308D0004208CF004F08B63CCF00FF
:1004E000FA015008D300D0170310D00CD10CD20C55
:1004F000FA0CF90CF80CF70CCF0B742AD31F8B2ACB
:10050000F709F809F909FA09F70A0319F80A0319AA
:10051000F90A0319FA0A7A08C5007908C4007808AC
:10052000C3007708C200C51FA22AC703C716C209A5
:10053000C309C409C509C20A0319C30A0319C40AB5
:100540000319C50A3B30CE009A30CD00CA30CC002A
:10055000CB010A30C90046080319C70A8314423088
:10056000840083134508D2004408D1004308D0001A
:100570004208CF004E08D6004D08D5004C08D400E4
:100580004B08D30084217808F708031DDA2A460AAD
:1005900049020319DA2A47080319DC2A0F394902EC
:1005A0000319D42A03180C2BC71B0C2B471BDC2A5E
:1005B0002030082B2030C705C71EEA2AC71246087C
:1005C000031DC7037708C7002D30CF00032147085C
:1005D000F700C70146084902031DF82A7708C7003B
:1005E0002E30CF0003214708F7002030C705003028
:1005F0003030C71E082BC7124608031DC7037708F3
:10060000C7002D30CF0003214708F700C701303065
:10061000F7077708CF00032183104E08D2004D085A
:10062000D1004C08D0004B08CF00D601D501D40131
:100630000A30D30084217A08CE007908CD007808EA
:10064000CC007708CB00C90BAE2A8A110A12EE2C17
:10065000300B2B2BAF0A2F084C3C031DF82C8310BA
:100660003408C5003308C4003208C3003108C20092
:100670001430C900AE30C8000730C7007C30C60057
:1006800080308318C706CC01CD014308CB00470852
:10069000CB0642080319302CCA00F700460803199C
:1006A000392CCA020319D52B031C932B4708D00001
:1006B000D0174808CF004908CE00CD010310D00C58
:1006C000CF0CCE0CCD0CCA0B5D2BCB1F6A2B4C1460
:1006D0004D2C4C104A104C16453084008313622C6C
:1006E0004C12CB1B7D2B4A1C882BD00CCF0CCE0C74
:1006F000CD0CF70A0319482C882BD01B8B2B031029
:10070000CD0DCE0DCF0DD00DF7030319482C7D2B49
:100710004C17F52B4C134308CB00CB1F912BD01754
:10072000412CD013412C4608CA00F7004208CA02E7
:100730004308D000D0174408CF004508CE00CD01B3
:100740000310D00CCF0CCE0CCD0CCA0B9F2BCB1FA3
:10075000AC2BCC144D2CCC104A10CC164930840054
:100760008313622CCC12CB1BBF2B4A1CCA2BD00C80
:10077000CF0CCE0CCD0CF70A0319482CCA2BD01B7A
:10078000CD2B0310CD0DCE0DCF0DD00DF7030319DA
:10079000482CBF2BCC17F52BCC134708CB00CB1F15
:1007A000D32BD017412CD013412C4708D000D017A1
:1007B0004808CF004908CE00CB1FE22BD0134C15C0
:1007C0004D2C4C11CD014A10453084008313622C0E
:1007D000CB1B0B2C4308CB004A1CF52BD00CCF0CA9
:1007E000CE0CCD0CF70A0319482CCD1F062CCE0ACF
:1007F000031D062CCF0A031D062CD00A031D062C50
:10080000D00CCF0CCE0CF70A0319482C4C1B8A2BAA
:10081000CC1BCC2B2A2C8030D006D01F132C4D2C77
:100820004708CB00202C4308CB00D008031D202C08
:10083000CF08031D202CCE08031D202CF701412CCE
:10084000D01B2A2C0310CD0DCE0DCF0DD00DF70BE4
:10085000202C482CCB1F2E2CD017412CD013412CF0
:100860004608F7004708D0004808CF004908CE00E6
:10087000412C4208F7004308D0004408CF00450847
:10088000CE005008F8004F08F9004E08FA00802CFE
:10089000F701F801F901FA01802CCD01CE09CF0949
:1008A000D009CD09CD0A031D5B2CCE0A031D5B2C9C
:1008B000CF0A0319D00A4C18692BCC18AB2B4C1952
:1008C000E12B102C0008CE07031C6C2CCF0A031D53
:1008D0006C2CD00A03194A1484030008CF07031CA8
:1008E000742CD00A03194A1484030008801F803A2C
:1008F000D00703184A144C1A702BCC1AB22BE82BD1
:100900007A08B4007908B3007808B2007708B1001B
:100910000130D000D1009B20FC3003178D00043043
:100920008F0003130B08C2008B13831603178C1759
:100930000C140000000083120C087F390319D92C15
:100940000313C30003170D080313C40003170F0894
:100950000313C5004308CF000321440803178D008B
:100960000313450803178F0083168C170C1400001F
:10097000000083120C0D0E0D7F390319D92C0313BF
:10098000C30003170D080313C40003170F08031354
:10099000C5004308CF000321440803178D0003134B
:1009A000450803178F008D0A03198F0A0313952C2E
:1009B00003170313C21B8B170130D0000230D10084
:1009C0009B20893084003408C5003308C4003208F5
:1009D000C3003108C2000230C600D3292030CF0046
:1009E00003216D30CF0003210A30CF000321AF0176
:1009F0000B118A110A121B28CD3274396135651D1D
:100A000020050000840183131F3083058130831685
:100A10009900A6309800903083129800FF30A8000B
:100A2000A81528088316870083122816280883161D
:100A30008700313093002830831294008316941776
:100A4000141301308312AC000830AD0083161F145C
:100A50009F141F159F118312AE0181018316010897
:100A6000C03907388100640083128B16C0308B04B4
:100A70004E30B6001030B7000230B8003608A9007A
:100A80003808AA003708AB000B138B138B1B452DBE
:100A9000A7018B1BA7178B133230D000EF20A71BA9
:100AA0008B17831611141118532D8312A7018B1B5A
:100AB000A7178B132908DD003720A71B8B17A70169
:100AC0008B1BA7178B13DA01DB014720A71B8B17A2
:100AD000A7018B1BA7178B130F30D000EF20A71B8C
:100AE0008B170130B9003908033C031C8C2DA7017A
:100AF0008B1BA7178B130330DA00DB014720A71BE2
:100B00008B17A7018B1BA7178B130530D000EF2085
:100B1000A71B8B17B90A732DA7018B1BA7178B1364
:100B20000230DA00DB014720A71B8B17A7018B1BC4
:100B3000A7178B130530D000EF20A71B8B17831648
:100B400011151119A12D8312B9013908033C031C99
:100B5000D72D39082F20BA003A08D700D8018316BC
:100B600011141118B12D83122908DD003720570EFA
:100B7000D9000F30D9055908DA005808DB004720A2
:100B800057080F39D900DA005808DB0047208316D0
:100B900011151119C92D8312A7018B1BA7178B13D0
:100BA0000530D000EF20A71B8B17B90AA52D013007
:100BB000D700D801831611141118DC2D83122908CF
:100BC000DD003720570ED9000F30D9055908DA005B
:100BD0005808DB00472057080F39D900DA005808B9
:100BE000DB004720831611151119F42D02308312F2
:100BF000D000EF200130AC00C0308B04AF01B00159
:100C0000B401B301B201B1018C1E042E1A08B50063
:100C10003508533C031D112EB00183168601831243
:100C200086013508413C031D1C2E0130B00083169F
:100C300086010A30831286003508543C031D272E96
:100C40000130B00083168601053083128600350816
:100C5000443C031D312EB0018316860109308312F6
:100C600086003508493C031D3B2EB00183168601E2
:100C700006308312860035080C1E3C2E9900042E87
:020C800063000F
:023E00000800B8
:02400E00723FFF
:00000001FF
;PIC16F877
;CRC=5323  CREATED="28-may-23 10:11"
